:020000040800F2
:100000002818002045010008A9010008AB010008DC
:10001000AF010008B3010008B701000800000000AC
:10002000000000000000000000000000BB0100080C
:10003000BD01000800000000BF010008C101000868
:100040005F0100085F0100085F0100085F01000810
:100050005F0100085F0100085F0100085F01000800
:100060005F0100085F0100085F0100085F010008F0
:100070005F0100085F0100085F0100085F010008E0
:100080005F0100085F0100085F0100085F010008D0
:100090005F0100085F0100085F0100085F010008C0
:1000A0005F0100085F0100085F0100085F010008B0
:1000B000D3010008DB010008E30100085F0100082C
:1000C0005F0100085F0100085F0100085F01000890
:1000D0005F010008CB010008C30100085F010008B0
:1000E0005F0100085F0100085F0100085F01000870
:1000F0005F0100085F0100085F0100085F01000860
:100100005F0100085F0100085F0100085F0100084F
:100110005F0100085F0100085F0100085F0100083F
:100120005F0100085F0100085F0100085F0100082F
:10013000DFF80CD004F0F2FF0048004795010008FA
:10014000281800200648804706480047FEE7FEE7DB
:10015000FEE7FEE7FEE7FEE7FEE7FEE7FEE7FEE777
:10016000C90200083101000810B54FF4A06000F08A
:100170002BF902F0A2FC03F01DFF03F001FC03F0D9
:1001800075F904F0CDFE04F09FFF04F0EAFD04F0E1
:1001900053FF10BDFFF7E8FF05E004F051FE04F047
:1001A0005FFF04F0D7FEF8E7704700BFFEE700BF2F
:1001B000FEE700BFFEE700BFFEE7704770477047ED
:1001C000704710B504F095FC10BD10B504F066FA48
:1001D00010BD10B503F005FD10BD10B503F09AF980
:1001E00010BD10B503F0FBFB10BD00000CB50020E6
:1001F000019000906B48006840F4803069490860C5
:1002000000BF6848006800F4003000900198401C6E
:100210000190009818B90198B0F5A06FF1D161482C
:10022000006810F4003F02D00120009001E000209F
:1002300000900098012842D15B48006840F010000F
:10024000594908600846006820F003000860084625
:10025000006840F002000860524840685149486018
:100260000846406848600846406840F4806048603E
:100270000846406820F47C1048600846406840F416
:10028000E81048600846006840F08070086000BFD1
:100290004448006810F0007FFAD04248406820F0DF
:1002A0000300404948600846406840F0020048604A
:1002B00000BF3C48406800F00C000828F9D10CBD94
:1002C00010B5FFF793FF10BD10B53648006840F039
:1002D0000100344908600846406834490840314903
:1002E000486008460068324908402E4908600846C0
:1002F000006820F4802008600846406820F4FE0072
:1003000048604FF41F0088600020C862FFF7D8FFE4
:100310004FF000602749086010BD30B50021002073
:10032000002200231F4C646804F00C0121B1042951
:1003300006D0082925D107E01F4C204D2C6024E071
:100340001D4C1E4D2C6020E0164C646804F47010A7
:10035000144C646804F48032022404EB904022B907
:10036000174C4443154D2C600AE00E4CE46A04F02F
:100370000F04631C104CB4FBF3F444430F4D2C608A
:1003800003E00D4C0D4D2C6000BF00BF054C6468B0
:10039000C4F303140B4D295D084C2468CC40074D71
:1003A0002C6030BD00100240002002400000FFF829
:1003B000FFFFF6FE08ED00E000127A0000000020CA
:1003C00000093D000400002031490143314A116019
:1003D000704770B5002100230F22C4780CB32D4C58
:1003E000246804F4E064C4F5E064210AC1F1040364
:1003F000CA40447804FA03F1847814402143090187
:10040000254C0678A155047804F01F050124AC4062
:1004100005786D114FF0E02606EB8505C5F8004123
:1004200009E0047804F01F050124AC401B4D067858
:10043000761145F8264070BD194A0A400243154B13
:100440001B1F1A60704739B1124A121D126802430D
:10045000104B1B1D1A6006E00E4A121D12688243E3
:100460000C4B1B1D1A607047042808D14FF0E02187
:10047000096941F004014FF0E022116107E04FF0FB
:10048000E021096921F004014FF0E0221161704779
:100490000000FA050CED00E000E400E080E100E07F
:1004A00080FFFF1F10B50446FA48844208D101219D
:1004B000401500F05CFD0021601500F058FD17E0CC
:1004C000F548844208D10121001500F050FD0021BB
:1004D000201500F04CFD0BE0F048844208D10121CA
:1004E000C80300F044FD00214FF4004000F03FFD40
:1004F00010BD30B50246002000235068E84C204073
:100500000D790C6844EA0524204350609068E54C5E
:100510002040D1E902542C434D7944EA450420435C
:100520009060D06A20F470000C7C641EE4B2234317
:1005300040EA0350D06230BD002101600171417179
:100540008160C16001210174704721B1826842F06D
:100550000102826003E0826822F00102826070473B
:1005600021B1826842F48072826003E0826822F4E2
:1005700080728260704710B50023CBB21AB1446814
:100580001C43446002E044689C43446010BD8168A1
:1005900041F0080181607047014600208A6812F02E
:1005A000080F01D0012000E000207047816841F071
:1005B000040181607047014600208A6812F0040F30
:1005C00001D0012000E00020704721B1826842F490
:1005D000A002826003E0826822F4A0028260704779
:1005E000014600208A6812F4800F01D0012000E04B
:1005F0000020704710B50A4600210023416821F40D
:100600006041531E41EA4331416010BD21B142684F
:1006100042F40062426003E0426822F400624260F9
:100620007047F0B504460D4600200021092D11DD6C
:10063000E068A5F10A0606EB4607072606FA07F169
:100640008843A5F10A0606EB460603FA06F10843BD
:10065000E0600CE0206905EB4507072606FA07F184
:10066000884305EB450603FA06F108432061072A93
:100670000FDA606B561E06EB86071F2606FA07F197
:100680008843561E06EB860605FA06F108436063AA
:1006900022E00D2A0FDA206BD61F06EB86071F26F5
:1006A00006FA07F18843D61F06EB860605FA06F11F
:1006B0000843206310E0E06AA2F10D0606EB86070E
:1006C0001F2606FA07F18843A2F10D0606EB8606FF
:1006D00005FA06F10843E062F0BD21B1826842F4F8
:1006E0008012826003E0826822F480128260704788
:1006F0000146C86C80B2704766484C30006870474D
:1007000021B1426842F48062426003E0426822F410
:1007100080624260704721B1426842F48052426078
:1007200003E0426822F48052426070470A4600218A
:10073000816821F4E04111438160704721B18268F2
:1007400042F40042826003E0826822F40042826048
:10075000704721B1826842F40212826003E082682D
:1007600022F4021282607047014600208A6812F467
:10077000001F01D0012000E000207047F0B50446C2
:100780001546002000220026092911DDE068A1F1AC
:100790000A0707EB470C072707FA0CF29043A1F171
:1007A0000A0707EB470703FA07F21043E0600CE083
:1007B000206901EB410C072707FA0CF2904301EB8B
:1007C000410703FA07F210432061A06BC0F3015602
:1007D000EF1C06F1010CA7EB0C0707EB870C1F279A
:1007E00007FA0CF29043EF1C06F1010CA7EB0C0783
:1007F00007EB870701FA07F21043A063F0BD10B5BD
:100800000A4600210023816B21F44011531E41EA66
:100810000351816310BD08B5002300930090009B35
:100820000B440093009B1A6008BD08B502460020E7
:100830000090009201F12800009B1844009000985D
:10084000006880B208BD0A4600214168164B194075
:100850001143416070474162826270470A4600213D
:10086000416821F01F0111434160704740B10949BF
:100870000831096841F40001064A0832116007E0B6
:1008800004490831096821F40001024A0832116064
:10089000704700000024014000280140003C014056
:1008A000FFFEF0FFFDF7F1FFFFFD3FFF02460020D6
:1008B00013680B4201D0012000E000207047CA43BA
:1008C0000260704770B502460020002300240B121E
:1008D0005568CEB205EA060415681D4202D00CB177
:1008E000012000E0002070BD00220A12D343036003
:1008F0007047000010B50446CA48844208D101215F
:10090000042000F034FB0021042000F030FB46E01E
:10091000C548844208D10121082000F028FB0021AD
:10092000082000F024FB3AE0C048844208D10121AD
:10093000102000F01CFB0021102000F018FB2EE01E
:10094000BB48844208D10121202000F010FB002187
:10095000202000F00CFB22E0B648844208D101219F
:10096000402000F004FB0021402000F000FB16E0D6
:10097000B148844208D10121802000F0F8FA00211A
:10098000802000F0F4FA0AE0AC48844207D101214B
:10099000801500F0ECFA0021A01500F0E8FA10BD77
:1009A00010B50121084600F0E2FA0021012000F014
:1009B000DEFA10BD2DE9F041024600250026002098
:1009C00000230024002791F803C00CF00F0591F8D4
:1009D00003C01CF0100F03D091F802C04CEA0505CB
:1009E00091F800C0BCF1000F31D0146800202BE05A
:1009F0004FF0010C0CFA00F3B1F800C00CEA03064A
:100A00009E4220D183004FF00F0C0CFA03F7BC4339
:100A100005FA03FC4CEA040491F803C0BCF1280F6A
:100A200006D14FF0010C0CFA00FCC2F814C00AE029
:100A300091F803C0BCF1480F05D14FF0010C0CFA3E
:100A400000FCC2F810C0401C0828D1D31460B1F8D3
:100A500000C0BCF1FF0F34DD546800202EE000F12F
:100A6000080C4FF0010808FA0CF3B1F800C00CEACA
:100A700003069E4221D183004FF00F0C0CFA03F7BE
:100A8000BC4305FA03FC4CEA040491F803C0BCF132
:100A9000280F05D100F1080C08FA0CF8C2F81480F0
:100AA00091F803C0BCF1480F07D100F1080C4FF0DA
:100AB000010808FA0CF8C2F81080401C0828CED3B0
:100AC0005460BDE8F0814FF6FF7101800221817012
:100AD0000421C17070470246002093680B4201D088
:100AE000012000E0002070470146886880B270470E
:100AF00002460020D3680B4201D0012000E0002014
:100B000070470146C86880B2704701617047416113
:100B100070470AB1016100E041617047C1607047F0
:100B20004FF480320A438261816182618269826905
:100B3000704702460020424B18684FF680731840F9
:100B400040EA021008433E4B186070473D49C861B7
:100B50007047F0B50A46002300240021002500F06C
:100B60000046B6F1004F02D1354EF16901E0344E36
:100B70007168C0F3034583B200F44016B6F5401F18
:100B800008D121F070612E4E766826F070662C4FE9
:100B90007E6012E000F48016B6F5801F06D10326B1
:100BA00006FA05F4A14341F0706106E0460D3601F6
:100BB00003FA06F6B14341F0706122B1460D3601E9
:100BC00003FA06F6314300F00046B6F1004F02D1B9
:100BD0001B4EF16101E01A4E7160F0BD30B500228C
:100BE0008B071C0F0F2303FA04F2154B08338C10EC
:100BF00053F824309343124C08348D1044F82530B8
:100C000023468C1053F824308C07240F00FA04F488
:100C100023430B4C08348D1044F8253030BD0A496D
:100C20000860704700080140000C014000100140BE
:100C30000014014000180140001C01400020014048
:100C40000000014000002042DC002042E44800682F
:100C500040F00100E249086008464068E149084068
:100C6000DF49486008460068DF490840DC49086001
:100C70000846006820F4802008600846406820F498
:100C8000FE0048604FF41F0088600020C862704773
:100C9000D349096821F48031D14A116011460968AD
:100CA00021F480211160B0F5803F03D0B0F5802F92
:100CB0000ED106E0CA49096841F48031C84A116082
:100CC00007E0C749096841F4A021C54A116000E066
:100CD00000BF00BF704710B501460022002300206E
:100CE0004A11012A02D1BE4C236806E0022A02D131
:100CF000BB4C236A01E0BA4C636A01F01F02012475
:100D000094401C4201D0012000E0002010BD38B505
:100D1000002000900024002500BF3120FFF7DBFFFA
:100D200005460098401C00900098B0F5A06F01D0D7
:100D3000002DF2D03120FFF7CEFF08B1012400E0F2
:100D40000024204638BD01460020A54A106820F046
:100D5000F80040EAC10010607047A449086070477D
:100D6000024600209E4B586820F4741042EA0103AA
:100D700018439B4B586070479C4908667047024671
:100D80000020974BD86A9A4B184042EA0103184357
:100D9000934BD862704701460020914A506820F07A
:100DA00003000843506070478D48406800F00C0015
:100DB0007047014600208A4A506820F0F00008433E
:100DC0005060704701460020854A506820F4E0607A
:100DD00008435060704701460020814A506820F463
:100DE000605040EAC1005060704729B17C4A527A95
:100DF00002437B4B5A7204E0794A527A8243784B21
:100E00005A7270477B490860704701460020744A57
:100E1000506820F440400843506070470021764AF3
:100E200011706F4A82F82010012802D0042808D1DE
:100E300003E00121704A117004E005216E4A11702F
:100E400000E000BF00BF70476C490860704764490C
:100E5000096A0143624A116270476849443908606F
:100E6000704770B5002100230024002200255C4E4D
:100E7000766806F00C0121B1042905D0082921D19A
:100E800005E05F4E066020E05D4E06601DE0544EBA
:100E9000766806F47013524E766806F480340226A3
:100EA00006EB93431CB9574E5E43066009E04C4E77
:100EB000F66A06F00F06751C514EB6FBF5F65E435A
:100EC000066002E04E4E066000BF00BF444E7668EA
:100ED00006F0F00109094C4E725C0668D640466087
:100EE0003F4E766806F4E061090A474E725C466838
:100EF000D64086603A4E766806F46051C90A424E82
:100F0000725C4668D640C660354E766806F440414D
:100F1000890B3E4E725CC668B6FBF2F6066170BD88
:100F200029B12F4A526902432D4B5A6104E02C4AE1
:100F3000526982432A4B5A61704729B1284A926903
:100F40000243274B9A6104E0254A92698243244B6D
:100F50009A61704729B1224AD2690243204BDA6173
:100F600004E01F4AD26982431D4BDA61704729B100
:100F70001B4AD26802431A4BDA6004E0184AD2686E
:100F80008243174BDA60704729B1154A1269024350
:100F9000134B1A6104E0124A12698243104B1A6122
:100FA000704716494039086070471049C864704757
:100FB0000B49C87170470A48406A40F08070084980
:100FC0004862704701460020054A92680A4201D0F3
:100FD000012000E00020704701498872704700003E
:100FE000001002400000FFF8FFFFF6FE0000424242
:100FF000F0FFFEFFD800424220100240800442422F
:1010000000127A0000093D00140000202400002096
:1010100010B50446FE48844208D10121C014FFF7F0
:10102000A6FF0021E014FFF7A2FFC4E0B4F1804F57
:1010300008D101210846FFF7A7FF00210120FFF793
:10104000A3FFB8E0F348844208D101210220FFF752
:101050009BFF00210220FFF797FFACE0EE4884429F
:1010600008D101210420FFF78FFF00210420FFF7A2
:101070008BFFA0E0E948844208D101210820FFF756
:1010800083FF00210820FFF77FFF94E0E4488442BB
:1010900008D101211020FFF777FF00211020FFF772
:1010A00073FF88E0DF48844208D101212020FFF748
:1010B0006BFF00212020FFF767FF7CE0DA488442C5
:1010C00008D101214014FFF752FF00216014FFF7FF
:1010D0004EFF70E0D548844209D10121C804FFF7D2
:1010E00046FF00214FF40020FFF741FF63E0D048A6
:1010F000844209D101210805FFF739FF00214FF48F
:101100008010FFF734FF56E0CA48844209D101211C
:101110004805FFF72CFF00214FF40010FFF727FFD1
:1011200049E0C548844208D101214020FFF72CFF47
:1011300000214020FFF728FF3DE0C048844208D14D
:1011400001218020FFF720FF00218020FFF71CFFF6
:1011500031E0BB48844208D101218015FFF714FF1C
:101160000021A015FFF710FF25E0B648844209D101
:1011700001210804FFF7FBFE00214FF48030FFF748
:10118000F6FE18E0B048844209D101214804FFF777
:10119000EEFE00214FF40030FFF7E9FE0BE0AB4814
:1011A000844208D101218804FFF7E1FE00214FF4B9
:1011B0008020FFF7DCFE10BD00220288944B98428D
:1011C0000ED0994B98420BD0B0F1804F08D0914B84
:1011D000984205D0904B984202D0904B984204D14F
:1011E0004FF68F731A404B881A438D4B984207D0A5
:1011F0008C4B984204D04FF6FF431A40CB881A43D9
:1012000002808B8883850B880385814B98420BD0A5
:10121000854B984208D08B4B984205D08A4B984218
:1012200002D08A4B984201D10B7A03860123838234
:10123000704770B5002400220023058C4FF6FE761F
:1012400035400584028C8388048B4FF68F752C40C3
:10125000B51E2C400D882C43751E2A400D892A434B
:101260004D882A436A4DA8420BD06F4DA84208D042
:10127000744DA84205D0744DA84202D0734DA842C7
:1012800013D14FF6F7752A404D892A434FF6FB7567
:101290002A408D882A434FF6FF652B404FF6FF55B5
:1012A0002B408D892B43CD892B4383800483CD88AC
:1012B0008586028470BD70B5002400220023058C51
:1012C0004FF6EF7635400584028C8388048B48F610
:1012D000FF752C404FF6FF452C400D884FF6FF76EA
:1012E00006EA05252C434FF6DF752A400D8906EAEC
:1012F00005152A434D8806EA05152A43444DA842A0
:1013000002D0494DA8421DD14FF67F752A404D8924
:101310004FF6FF7606EA05152A434FF6BF752A40B9
:101320008D8806EA05152A434FF6FF352B404FF20C
:10133000FF752B408D8906EA85052B43CD8906EA8A
:1013400085052B4383800483CD880587028470BD87
:1013500070B5002400220023058C4FF6FF6635404F
:101360000584028C8388848B4FF68F752C404FF652
:10137000FC752C400D882C434FF6FF552A400D89F3
:101380004FF6FF7606EA05252A434D8806EA05252D
:101390002A431F4DA84202D0234DA8421DD14FF22F
:1013A000FF752A404D894FF6FF7606EA05252A4348
:1013B0004FF6FF352A408D8806EA05252A434EF66A
:1013C000FF752B404DF6FF752B408D8906EA0515FC
:1013D0002B43CD8906EA05152B4383808483CD8872
:1013E0008587028470BD70B5002200230024058C1F
:1013F0004EF6FF7635400584038C8488828B48F650
:10140000FF752A404FF6FF452A400D8820E0000076
:10141000002C01400004004000080040000C004087
:10142000001000400014004000340140004C014016
:10143000005001400054014000180040001C0040D2
:1014400000200040004001400044014000480140AD
:101450004FF6FF7606EA05252A434DF6FF752B4029
:101460000D8906EA05352B434D8806EA05352B43E1
:10147000FA4DA84202D0FA4DA84208D14BF6FF75AA
:101480002C408D894FF6FF7606EA85152C43848023
:101490008283CD88A0F84050038470BD828B4FF2C8
:1014A000FF331A408283828B4FF6FF7303EA0123D6
:1014B0001A4382837047F0B50C461546002200217E
:1014C0000026078C4EF6FF7C07EA0C070784828B08
:1014D000018C4FF6FF7707EA043640F6FF473A40A3
:1014E0004FF6FF7707EA05273A434FF6FF7707EAFB
:1014F00003373A43D94FB8420ED0D94FB8420BD038
:10150000B0F1804F08D0D74FB84205D0D64FB8427F
:1015100002D0D64FB84206D14DF6FF77394046F497
:101520008057394305E047F6FF57394044F4805768
:10153000394382830184F0BD828B4FF6F3731A40E6
:101540008283828B0A4382837047F0B50C4615462E
:10155000002200210026078C4FF6FF6C07EA0C07DB
:101560000784828B018C4FF6FF7707EA04264FF63B
:101570000C773A404FF6FF7707EA03172F433A43B9
:10158000B64FB8420ED0B64FB8420BD0B0F1804F34
:1015900008D0B44FB84205D0B34FB84202D0B34FD1
:1015A000B84206D14FF6FF57394046F480773943A9
:1015B00005E04FF2FF57394044F480773943828386
:1015C0000184F0BD028B4FF2FF331A400283028B7D
:1015D0004FF6FF7303EA01231A4302837047F0B505
:1015E0000C461546002200210026078C4FF6EF7CA2
:1015F00007EA0C070784028B018C4FF6FF7707EA96
:10160000041640F6FF473A404FF6FF7707EA0337E4
:101610003A434FF6FF7707EA05273A438F4FB84220
:101620000ED08F4FB8420BD0B0F1804F08D08D4F05
:10163000B84205D08C4FB84202D08C4FB84206D188
:101640004FF6DF77394046F01007394305E04FF693
:101650005F77394044F01007394302830184F0BDBD
:10166000028B4FF6F3731A400283028B0A43028304
:101670007047F0B50C46154600220021068C4FF647
:10168000FE773E400684028B018C4FF60C7632408A
:101690007E1C06EA03162E433243704EB0420ED033
:1016A0006F4EB0420BD0B0F1804F08D06D4EB042BB
:1016B00005D06D4EB04202D06C4EB04206D14FF60E
:1016C000FD76314044F00106314305E04FF6F576F2
:1016D000314044F00106314302830184F0BD70B50E
:1016E00005460C465D4885420ED05D4885420BD0CC
:1016F000B5F1804F08D05B48854205D05A488542F5
:1017000002D05A48854200D100E000BF208850B97D
:101710002389A28861882846FFF7ABFFE188284625
:10172000FFF79EFF25E0208804280AD12389A2889C
:1017300061882846FFF753FFE1882846FFF742FFFC
:1017400017E0208808280AD12389A28861882846C2
:10175000FFF7FBFEE1882846FFF7EEFE09E023894C
:10176000A28861882846FFF7A6FEE1882846FFF791
:1017700095FE70BD2DE9F04105460C460026012777
:10178000608808B9022600E00026A088012801D15F
:10179000022700E001272088A0B92389A288618858
:1017A0002846FFF766FFE1882846FFF759FF23899F
:1017B0003A4631462846FFF712FFE1882846FFF7F0
:1017C00001FF13E02389A28861882846FFF707FFFD
:1017D000E1882846FFF7F6FE23893A463146284637
:1017E000FFF747FFE1882846FFF73AFFBDE8F081A1
:1017F0000A884B881A438B881A43CB881A430B8973
:101800001A434B891A438B891A43A0F84420704726
:101810004FF6FF71818000210180C18041800172FB
:1018200070470021018041808180C1800181418118
:101830008181C18170470021018041800121818027
:101840000021C18001817047002101804180818099
:10185000C18001814181818170470000002C0140DD
:10186000003401400004004000080040000C00402B
:1018700021B1028842F00102028004E002884FF6A2
:10188000FE731A400280704731B1B0F8442042F430
:101890000042A0F8442005E0B0F84420C2F30E0254
:1018A000A0F8442070471AB183890B43838102E07A
:1018B00083898B43838170478182704741EA0203A9
:1018C000A0F8483070471AB183890B43838102E046
:1018D00083898B438381704701894FF6F8721140E9
:1018E000018170470A46002101894FF68F73194024
:1018F00011430181704730B504460D462946204604
:10190000FFF7F0FF208940F00700208130BD2DE96E
:10191000F04104460D4616461F46602D06D13B4653
:10192000012231462046FFF75AFE05E03B460122E0
:1019300031462046FFF79DFE29462046FFF7D2FF9D
:10194000208940F007002081BDE8F08130B50C46C9
:1019500000210189C9B24FF6FF7505EA0325154339
:1019600025432943018130BD2DE9F04105460E464E
:1019700017469846002443463A4631462846FFF724
:10198000E5FF2C894FF6F870044044F007044FF649
:101990008F70044044F070042C81BDE8F081F0B5F4
:1019A00004460D4616461F463B463246294620460B
:1019B000FFF7CCFF208940F480402081F0BD0185F5
:1019C000828270470A46002101884FF68F731940C2
:1019D000114301807047F0B50C4615461E460021A4
:1019E000002200230189028B038C4FF6F8773940DF
:1019F00021434FF6FC473A4040F201173A434FF675
:101A0000DD773B404FF6FF7707EA06172F433B434E
:101A1000018102830384F0BD0A460021018B4FF649
:101A20008F7319401143018370470A460021018BCF
:101A300048F6FF7319404FF6FF7303EA0223194378
:101A4000018370470A460021818B4FF68F7319403E
:101A50001143818370470A460021818B48F6FF734A
:101A600019404FF6FF7303EA02231943818370473D
:101A700021B1028842F08002028004E002884FF621
:101A80007F731A400280704721B1828842F00402BD
:101A9000828004E082884FF6FB731A408280704790
:101AA00021B1828842F00802828004E082884FF6E9
:101AB000F7731A408280704721B1828842F0010298
:101AC000828004E082884FF6FE731A40828070475D
:101AD0000A460021018B4FF6F77319401143018329
:101AE00070470A460021018B4FF2FF7319404FF6F1
:101AF000FF7303EA02231943018370470A4600215A
:101B0000818B4FF6F77319401143818370470A4662
:101B10000021818B4FF2FF7319404FF6FF7303EAE8
:101B200002231943818370470A460021018B4FF637
:101B3000FB7319401143018370470A460021018B52
:101B40004FF6FF3319404FF6FF7303EA02231943A0
:101B5000018370470A460021818B4FF6FB731940C1
:101B60001143818370470A460021818B4FF6FF3372
:101B700019404FF6FF7303EA02231943818370472C
:101B80000A460021018B4FF67F73194011430183F0
:101B900070470A460021018BC1F30E014FF6FF7317
:101BA00003EA02231943018370470A460021818B0F
:101BB0004FF67F7319401143818370470A46002115
:101BC000818BC1F30E014FF6FF7303EA0223194321
:101BD000818370470A460021018C4FF6FD7319403E
:101BE0001143018470470A460021018C4FF6F773B8
:101BF00019401143018470470A460021018C4FF6B9
:101C0000DF7319404FF6FF7303EA0213194301848F
:101C100070470A460021018C4FF67F7319404FF63A
:101C2000FF7303EA02131943018470470A46002137
:101C3000018C4FF6FF5319404FF6FF7303EA02235E
:101C40001943018470470A460021018C4FF2FF734B
:101C500019404FF6FF7303EA0223194301847047CA
:101C60000A460021018C4DF6FF7319404FF6FF73B1
:101C700003EA023319430184704730B5002301247D
:101C80008C40A3B2048C9C430484048C02FA01F5BA
:101C9000ADB22C43048430BD30B5002304248C4005
:101CA000A3B2048C9C430484048C02FA01F5ADB207
:101CB0002C43048430BD70B5034600200024184630
:101CC000183001258D40ACB21D8CA5431D8409B18F
:101CD000082909D100EB6100056825F07005056051
:101CE0000568154305600EE00D1FC5F34E05284439
:101CF000056825F4E045056005684FF6FF7606EABD
:101D000002263543056070BD21B1028842F002020F
:101D1000028004E002884FF6FD731A40028070478B
:101D200021B1028842F00402028004E002884FF6EA
:101D3000FB731A400280704721B1828842F0800212
:101D4000828004E082884FF67F731A408280704759
:101D500002884FF6F7731A40028002880A43028015
:101D6000704782884FF68F731A40828082880A43B8
:101D70008280704702894FF6F8731A400281028907
:101D80000A430281704702894FF67F731A4002812D
:101D900002890A43028170478184704781857047B8
:101DA000818670470187704781877047A0F840108F
:101DB000704702884FF6FF431A40028002880A43A8
:101DC000028070470146888E70470146088F704731
:101DD0000146888F70470146B1F8400070470146C0
:101DE000888C70470146088D704702460020138A90
:101DF0000B4201D0012000E000207047CA4302825C
:101E0000704730B50246002000230024158A05EAF9
:101E10000103958905EA010413B10CB1012000E02A
:101E2000002030BDCA4302827047000010B504464E
:101E3000FB48844209D101218803FFF798F800216B
:101E40004FF48040FFF793F832E0F648844209D11E
:101E500001214804FFF798F800214FF40030FFF704
:101E600093F825E0F048844209D101218804FFF766
:101E70008BF800214FF48020FFF786F818E0EB483C
:101E8000844209D10121C804FFF77EF800214FF4F4
:101E90000020FFF779F80BE0E548844208D10121E2
:101EA0000805FFF771F800214FF48010FFF76CF878
:101EB00010BD2DE9F04786B005460E460024A24627
:101EC00000BFA1460027B08900B100BF2F462C8A71
:101ED0004CF6FF700440F08804432C82AC894EF627
:101EE000F3100440B08831890843718908430443E2
:101EF000AC81AC8A4FF6FF400440B0890443AC8209
:101F000001A8FEF7AEFFC648874202D1DDF810A057
:101F100001E0DDF80CA0A88910F4004F08D00AEB0E
:101F2000CA0000EB0A1031684900B0FBF1F807E085
:101F30000AEBCA0000EB0A1031688900B0FBF1F827
:101F40006420B8FBF0F004012009642101FB108932
:101F5000A88910F4004F08D0322000EBC900B0FB74
:101F6000F1F000F00700044308E0322000EB091014
:101F70006421B0FBF1F000F00F0004432C8106B0A7
:101F8000BDE8F0874FF41651016000218180C180C7
:101F900001810C21418100218181704710B50246E9
:101FA0000020108A4FF2FF0318400B884C8823430F
:101FB0008C882343CC8823431843108210BD002112
:101FC000018041808180C180704721B1828942F4C3
:101FD0000052828104E082894DF6FF731A408281AB
:101FE0007047F0B503460024002600250020A1F527
:101FF00010676A3F00D100BF1846C1F3421401F0D8
:102000001F06012707FA06F5012C01D10C3004E068
:10201000022C01D1103000E014301AB107682F43B0
:10202000076002E00768AF430760F0BD1AB1838A1A
:102030000B43838202E0838A8B4383827047028A48
:102040004FF6F0731A400282028A0A4302827047F6
:1020500082894FF2FF731A40828182890A4382810A
:10206000704721B1828942F00202828104E08289B4
:102070004FF6FD731A4082817047028A4FF6DF7374
:102080001A400282028A0A430282704721B1028A00
:1020900042F48042028204E0028A4BF6FF731A4047
:1020A00002827047C1F30802828070470146888827
:1020B000C0F308007047818941F0010181817047B8
:1020C000028BD2B20283028B42EA01220283704762
:1020D000028B02F47F420283028B0A430283704721
:1020E00021B1828A42F02002828204E0828A4FF685
:1020F000DF731A408282704721B1828A42F0100257
:10210000828204E0828A4FF6EF731A40828270471F
:1021100021B1828A42F00802828204E0828A4FF66C
:10212000F7731A408282704721B1828942F40042DB
:10213000828103E08289C2F30E028281704721B15D
:10214000828A42F40062828204E0828A4FF2FF7344
:102150001A4082827047828A4FF6FB731A4082824D
:10216000828A0A438282704721B1828A42F0020247
:10217000828204E0828A4FF6FD731A4082827047A1
:1021800002460020B1F5007F00D100BF13880B424A
:1021900001D0012000E00020704701F40072B2F588
:1021A000007F00D100BFCA430280704770B502466D
:1021B0000024002300250020A1F510666A3E00D10E
:1021C00000BFC1F3421501F01F03012606FA03F315
:1021D000012D02D19689334006E0022D02D1168AE4
:1021E000334001E0968A33400C12012606FA04F4CB
:1021F0001688344013B10CB1012000E0002070BDFE
:1022000010B500220023A1F510646A3C00D100BF84
:102210000A1201249440A3B2DC43048010BD0000E4
:10222000003801400044004000480040004C00409D
:1022300000500040704710B501464888142810DA55
:10224000488810F0010F06D001224C88601E00EB78
:10225000D074631007E00022488800EBD07463104C
:1022600001E0042010BD0888012804D002280ED007
:10227000032824D117E002EBC20000EB0210FA4C55
:1022800004EBC00003EB830410F82400EAE702EB40
:10229000C20000EB0210F54C04EBC00003EB83041A
:1022A00010F82400DEE702EBC20000EB0210F04C55
:1022B00004EBC00003EB830410F82400D2E70420F1
:1022C000D0E710B5002450E004EB8400E64911F893
:1022D0002000012848D104EB840001EB8000C06895
:1022E000401E04EB8401E04A02EB8101C86004EB6C
:1022F0008400114601EB8000C06838BB04EB840108
:1023000002EB81010869804704EB8400D64901EBA8
:102310008000407802280BD104EB840001EB8000A0
:10232000806804EB8401D04A02EB8101C8601BE0A5
:1023300004EB8400CC4901EB80004078012806D1F1
:10234000002004EB8401C84A02F821000CE004EBF1
:102350008400C54901EB80004078032804D104EBD8
:102360008401C14A02F82100641C0A2CACD310BDC0
:1023700010B5002460E004EB8401BB48C83010F8BD
:102380002100012857D104EB8401B748C83000EB85
:102390008100C068401E04EB8402B349C83101EBE0
:1023A0008201C86004EB8401AF48C83000EB8100B3
:1023B000C06878BB04EB8402AB49C83101EB8201F1
:1023C0000869804704EB8401A748C83000EB81000E
:1023D000407802280ED104EB8401A348C83000EBFA
:1023E0008100816804EB84029F48C83000EB8200C2
:1023F000C16020E004EB84019B48C83000EB810001
:102400004078012807D1002104EB84029648C830A7
:1024100000F822100FE004EB84019348C83000EB71
:1024200081004078032806D1032104EB84028E4802
:10243000C83000F82210641C0A2C9CD310BD10B5C3
:10244000002450E004EB8400884911F820000128A2
:1024500048D104EB840001EB8000C068401E04EB0F
:102460008401824A02EB8101C86004EB84001146BA
:1024700001EB8000C06838BB04EB840102EB8101F2
:102480000869804704EB8400784901EB80004078BC
:1024900002280BD104EB840001EB8000806804EB80
:1024A0008401724A02EB8101C8601BE004EB8400E6
:1024B0006E4901EB80004078012806D1002004EB32
:1024C00084016A4A02F821000CE004EB84006749A9
:1024D00001EB80004078032804D104EB8401634AB7
:1024E00002F82100641C0A2CACD310BD10B50024E6
:1024F00060E004EB84015D48C83010F82100012839
:1025000057D104EB84015948C83000EB8100C06802
:10251000401E04EB84025549C83101EB8201C860BA
:1025200004EB84015148C83000EB8100C06878BBDF
:1025300004EB84024D49C83101EB820108698047F0
:1025400004EB84014948C83000EB81004078022840
:102550000ED104EB84014548C83000EB810081684E
:1025600004EB84024148C83000EB8200C16020E0E7
:1025700004EB84013D48C83000EB8100407801281D
:1025800007D1002104EB84023848C83000F822103B
:102590000FE004EB84013548C83000EB810040783F
:1025A000032806D1032104EB84023048C83000F828
:1025B0002210641C0A2C9CD310BD10B5002450E0DE
:1025C00004EB84002A4911F82000012848D104EBCB
:1025D000840001EB8000C068401E04EB8401244AA3
:1025E00002EB8101C86004EB8400114601EB80001E
:1025F000C06838BB04EB840102EB810108698047A5
:1026000004EB84001A4901EB8000407802280BD1CA
:1026100004EB840001EB8000806804EB8401144A21
:1026200002EB8101C8601BE004EB8400104901EB60
:1026300080004078012806D1002004EB84010C4A78
:1026400002F821000CE004EB8400094901EB800052
:102650004078032804D104EB8401054A02F82100E4
:10266000641C0A2CACD310BD38010020C802002025
:102670005804002010B5002454E004EB8401FE4807
:1026800010F8210001284CD104EB8401FA4800EB3A
:102690008100C068401E04EB8402F74901EB82010F
:1026A000C86004EB8401F44800EB8100C06848BBBB
:1026B00004EB8402F04901EB82010869804704EBD6
:1026C0008401ED4800EB8100407802280CD104EB36
:1026D0008401E94800EB8100816804EB8402E6484C
:1026E00000EB8200C1601CE004EB8401E24800EBD7
:1026F00081004078012806D1002104EB8402DE48E5
:1027000000F822100DE004EB8401DB4800EB8100AF
:102710004078032805D1032104EB8402D64800F851
:102720002210641C0A2CA8D310BD2DE9FF5F82463D
:102730000E4693460A20B6FBF0F100FB11600290B2
:10274000029808B90A2E00D2B0E0642E28D2CB48F5
:102750000088CA494988884205D1C84800880528A8
:1027600001DA002410E0C5480088C449498888423D
:1027700001DD012408E0C1480088C0494988884239
:1027800001DA002400E091E0BC4800EB440804EBCF
:10279000C40000EB0410BA4901EBC005012754E066
:1027A000B6F57A7F28D2B7480088B649498888426A
:1027B00005D1B4480088052801DA002410E0B148AA
:1027C0000088B0494988884201DD012408E0AD480D
:1027D0000088AC494988884201DA002400E065E0BD
:1027E000A84800EB440804EBC40000EB0410A64921
:1027F00001EBC0050A2728E0A4480088A3494988BE
:10280000884205D1A1480088052801DA002410E09B
:102810009E4800889D494988884201DD012408E0DE
:102820009A48008899494988884201DA002400E0E2
:102830003CE0964800EB440804EBC40000EB0410B5
:102840008D49C83901EBC00564274FF0000929E024
:10285000287820BB00F03CFE0120287085F801B0EC
:1028600007EB87004000B6FBF0F0A86007EB87009D
:102870004000B6FBF0F0E860C5F810A0B8F8000022
:10288000401CA8F8000000F01DFE6888ADF80400A8
:10289000A888ADF80600019804B0BDE8F09F143593
:1028A00009F10109B9F10A0FD2D300BF4FF6FF7049
:1028B000ADF80C00ADF80E00BDF80C00ADF800004E
:1028C000BDF80E00ADF802000098E5E770B50646C9
:1028D0007088142810DA708810F0010F06D00124D7
:1028E0007188481E00EBD0714D1007E000247088FD
:1028F00000EBD0714D1001E0002070BD3088012840
:1029000004D0022842D003287CD180E004EBC4002C
:1029100000EB04105A4901EBC00005EB850110F8EB
:10292000210078B300F0D4FD002004EBC40101EBDA
:102930000411534A02EBC10105EB850201F82200A4
:1029400004EBC40101EB04114D4A02EBC10105EB9C
:10295000850201EB8201886004EBC40101EB0411E4
:10296000474A02EBC10105EB850201EB82010861D8
:10297000424830F81400401E404921F8140000F08D
:10298000A1FD02E0FFE70020B7E793E004EBC400FD
:1029900000EB04103C4901EBC00005EB850110F889
:1029A000210080B300F094FD002004EBC40101EB92
:1029B0000411354A02EBC10105EB850201F8220042
:1029C00004EBC40101EB04112F4A02EBC10105EB3A
:1029D000850201EB8201886004EBC40101EB041164
:1029E000294A02EBC10105EB850201EB8201086176
:1029F000244830F81400401E224921F8140000F049
:102A000061FD03E054E0FFE7002076E752E004EBCD
:102A1000C40000EB04101849C83901EBC00005EBF5
:102A2000850110F8210030B300F052FD002004EBC6
:102A3000C40101EB0411104AC83A02EBC10105EBD5
:102A4000850201F8220004EBC40101EB04110A4ADB
:102A5000C83A02EBC10105EB850201EB82018860F7
:102A600004EBC40101EB0411034AC83A02EBC101B3
:102A700005EB85020CE018E020050020280000206E
:102A8000380100202C000020C80200203000002067
:102A900001EB82010861FB4830F81400401EF9493F
:102AA00021F8140000F00EFD01E0002025E701E010
:102AB000002022E700BF01201FE770B500F00EFDE7
:102AC000002461E00020F04921F81400002558E0BE
:102AD000002004EBC40101EB0411EC4A02EBC1013C
:102AE00005EB850201F8220004EBC40101EB04119F
:102AF000E64A02EBC10105EB850201EB8201487059
:102B000004EBC40101EB0411E04A02EBC10105EB47
:102B1000850201EB8201886004EBC40101EB041122
:102B2000DA4A02EBC10105EB850201EB8201C860C4
:102B300004EBC40101EB0411D44A02EBC10105EB23
:102B4000850201EB82010861012004EBC40101EB65
:102B50000411CE4A02EBC10105EB850201EB8201B3
:102B6000488004EB450081B204EBC40000EB041084
:102B7000C64A02EBC00005EB850200EB82008180B3
:102B80006D1C0A2DA4D3641C022C9BD3002461E08D
:102B90000020BF4921F81400002558E0002004EB74
:102BA000C40101EB0411BB4A02EBC10105EB850234
:102BB00001F8220004EBC40101EB0411B54A02EB59
:102BC000C10105EB850201EB8201487004EBC401F1
:102BD00001EB0411AF4A02EBC10105EB850201EBE9
:102BE0008201886004EBC40101EB0411A94A02EBE5
:102BF000C10105EB850201EB8201C86004EBC40151
:102C000001EB0411A34A02EBC10105EB850201EBC4
:102C100082010861022004EBC40101EB04119D4A0A
:102C200002EBC10105EB850201EB8201488004EB58
:102C3000450081B204EBC40000EB0410954A02EB9E
:102C4000C00005EB850200EB820081806D1C0A2D1F
:102C5000A4D3641C022C9BD3002461E0002089498A
:102C600021F81400002558E0002004EBC40101EB1A
:102C70000411894A02EBC10105EB850201F822002B
:102C800004EBC40101EB0411834A02EBC10105EB23
:102C9000850201EB8201487004EBC40101EB0411D1
:102CA0007D4A02EBC10105EB850201EB82018860E0
:102CB00004EBC40101EB0411774A02EBC10105EBFF
:102CC000850201EB8201C86004EBC40101EB041131
:102CD000714A02EBC10105EB850201EB820108613B
:102CE000032004EBC40101EB04116B4A02EBC101A8
:102CF00005EB850201EB8201488004EB450081B2BF
:102D000004EBC40000EB0410634A02EBC00005EBC7
:102D1000850200EB820081806D1C0A2DA4D3641C07
:102D2000022C9BD35D485E4908605E4848605E485F
:102D30005E4908605E4848605E485F4908605F48D9
:102D400048600A465949564800F072FC18B100F034
:102D5000B9FB012070BD00F0BBFB0020FAE71CB5F9
:102D6000044664204443032221465548FFF7DDFC16
:102D70000190BDF80400ADF80000BDF80600ADF804
:102D8000020000981CBD10B504462046FFF79EFDCA
:102D900010BD10B504462046FFF74DFA032801D1B7
:102DA000012010BD0020FCE72DE9F04106460F464A
:102DB0007088142864DA00F08BFB708810F0010F23
:102DC00006D001247188481E00EBD0714D1004E03C
:102DD0000024708800EBD0714D103088012804D099
:102DE00002281BD003286DD131E0012004EBC4017F
:102DF00001EB0411254A02EBC10105EB850201F844
:102E0000220004EBC40000EB0410204901EBC000D9
:102E100005EB850100EB8100876054E0012004EBA5
:102E2000C40101EB04111B4A02EBC10105EB850251
:102E300001F8220004EBC40000EB0410154901EB7B
:102E4000C00005EB850100EB810087603BE00120BD
:102E500004EBC40101EB04110F4A02EBC10105EBC5
:102E6000850201F8220004EBC40000EB04100A49BB
:102E700001EBC00005EB850100EB8100876022E0DB
:102E800024E01FE03000002028000020380100204E
:102E90002C000020C802002058040020C322000893
:102EA00034000020712300083F2400083C0000206B
:102EB000ED240008BB25000844000020752600080A
:102EC0003522000800BF00BF00F0FCFABDE8F08129
:102ED00070B504466088142842DA00F0F9FA608878
:102EE00010F0010F06D001256188481E00EBD0715B
:102EF0004E1004E00025608800EBD0714E10208851
:102F0000012804D002280FD0032827D119E005EBAF
:102F1000C50000EB0510F74901EBC00006EB860188
:102F200000EB8100806870BD05EBC50000EB05106B
:102F3000F14901EBC00006EB860100EB81008068DF
:102F4000F1E705EBC50000EB0510EC4901EBC00013
:102F500006EB860100EB81008068E4E70020E2E7F1
:102F60000020E0E71CB504466420444303222146C8
:102F7000E348FFF7DAFB0090BDF80000ADF804006D
:102F8000BDF80200ADF8060000BF01A8FFF701FF81
:102F90000028FAD001A8FFF7F6FE1CBD2DE9F0418C
:102FA00006460F467088142865DA00F091FA70889A
:102FB00010F0010F06D001247188481E00EBD0717B
:102FC0004D1004E00024708800EBD0714D10308863
:102FD000012804D002281AD0032848D12FE004EB9E
:102FE000C40000EB0410C34901EBC00005EB8501F0
:102FF00010F8210050B104EBC40000EB0410BD49EF
:1030000001EBC00005EB850100F8217030E004EB16
:10301000C40000EB0410B84901EBC00005EB8501CA
:1030200010F8210050B104EBC40000EB0410B249C9
:1030300001EBC00005EB850100F8217018E004EBFE
:10304000C40000EB0410AD4901EBC00005EB8501A5
:1030500010F8210050B104EBC40000EB0410A749A4
:1030600001EBC00005EB850100F8217000E000BF16
:1030700000BF00F027FABDE8F08110B500F028FA93
:1030800010BD10B500F01EFA10BD10B5002061E0B3
:1030900000229C4B23F81020002158E0002200EB76
:1030A000C00303EB0013934C04EBC30301EB810457
:1030B00003F8242000EBC00303EB00138D4C04EB5A
:1030C000C30301EB810403EB84035A7000EBC003DC
:1030D00003EB0013874C04EBC30301EB810403EB08
:1030E00084039A6000EBC00303EB0013814C04EBF4
:1030F000C30301EB810403EB8403DA6000EBC0033C
:1031000003EB00137B4C04EBC30301EB810403EBE3
:1031100084031A61012200EBC00303EB0013754C1A
:1031200004EBC30301EB810403EB84035A8000EB3F
:10313000410293B200EBC00202EB00126D4C04EBB3
:10314000C20201EB810402EB84029380491C0A292C
:10315000A4D3401C02289BD3002061E000226A4BCC
:1031600023F81020002158E0002200EBC00303EBFD
:103170000013614C04EBC30301EB810403F824202A
:1031800000EBC00303EB00135B4C04EBC30301EB48
:10319000810403EB84035A7000EBC00303EB0013BC
:1031A000554C04EBC30301EB810403EB84039A60E9
:1031B00000EBC00303EB00134F4C04EBC30301EB24
:1031C000810403EB8403DA6000EBC00303EB00131C
:1031D000494C04EBC30301EB810403EB84031A6144
:1031E000022200EBC00303EB0013434C04EBC303C8
:1031F00001EB810403EB84035A8000EB410293B29C
:1032000000EBC00202EB00123B4C04EBC20201EBEC
:10321000810402EB84029380491C0A29A4D3401C38
:1032200002289BD3002061E00022384B23F81020B5
:10323000002158E0002200EBC00303EB00132F4CE9
:1032400004EBC30301EB810403F8242000EBC0036B
:1032500003EB0013294C04EBC30301EB810403EBE4
:1032600084035A7000EBC00303EB0013234C04EB00
:10327000C30301EB810403EB84039A6000EBC003FA
:1032800003EB00131D4C04EBC30301EB810403EBC0
:103290008403DA6000EBC00303EB0013174C04EB6C
:1032A000C30301EB810403EB84031A61032200EBE7
:1032B000C00303EB0013114C04EBC30301EB8104C7
:1032C00003EB84035A8000EB410293B200EBC0028F
:1032D00002EB0012094C04EBC20201EB810402EB89
:1032E00084029380491C0A29A4D3401C02289BD342
:1032F00010BD000038010020C80200205804002042
:1033000035220008280000202C000020300000207A
:1033100010B50446224680216448FDF7FAFB10BD33
:1033200010B563480078F02871D062480078614990
:103330000978491C5F4A1170082874D2DFE800F050
:1033400004111E2B3845525F5948007810F0010FC8
:1033500003D00020FFF7DCFF02E00120FFF7D8FFD9
:1033600068E053480078C0F3400018B10020FFF730
:10337000CFFF02E00120FFF7CBFF5BE04C48007875
:10338000C0F3800018B10020FFF7C2FF02E0012067
:10339000FFF7BEFF4EE046480078C0F3C00018B10A
:1033A0000020FFF7B5FF02E00120FFF7B1FF41E089
:1033B0003F480078C0F3001018B10020FFF7A8FFC5
:1033C00002E00120FFF7A4FF34E039480078C0F3A1
:1033D000401018B10020FFF79BFF02E00120FFF72B
:1033E00097FF27E032480078C0F3801018B1002022
:1033F000FFF78EFF02E00120FFF78AFF1AE02C485A
:103400000078C00905D00020FFF782FF04E012E039
:1034100009E00120FFF77CFF002026490870F0201A
:103420002349087006E0F020214908700020214956
:10343000087000BF19E020480078401C1E49087041
:10344000084600780A2810D1002008701B48007830
:10345000C0431A4908700846007818B10020FFF7E9
:1034600057FF02E00120FFF753FF10BD1CB50121FB
:103470002020FDF762FD8020ADF8040003208DF8C8
:10348000060010208DF8070001A90848FDF792FA00
:10349000F02007490870022278210948FFF745F912
:1034A00000900120FFF734FF1CBD00000014014014
:1034B0004F0000204E0000204C0000204D00002056
:1034C0002133000810B501216948FEF7D1F910BD7C
:1034D00010B500216648FEF7CBF910BD0121654A01
:1034E0001180654A1180654A11800021644A11806B
:1034F000644A118000200AE00021634A42F820104B
:10350000624A42F82010624A42F82010401C022809
:10351000F2D3704710B501215548FEF772FC002820
:1035200051D057480088401C5549088055480088AC
:10353000401C5449088054484E49098850F82100DD
:1035400058B151494B4A128851F8220080474948E6
:1035500001880120884347490880494800880A2893
:1035600014DB4A484449098850F8210028B14749EA
:10357000414A128851F822008047002040490880C3
:103580003D480188012088433B4908803D48008828
:10359000642814DB3E483949098850F8210028B1D5
:1035A0003B49364A128851F82200804700203549AD
:1035B0000880324801880120884330490880012171
:1035C0002B48FEF72FFC10BD0EB501210220FDF7A0
:1035D000C1FC40F2F310ADF8040040F2CF20ADF88A
:1035E00000000020ADF80600ADF802006946204852
:1035F000FDF7E2FD01211E48FEF714FC01221146F1
:103600001B48FEF750F901211948FEF731F90EBDAC
:1036100008B51D208DF8000000208DF80100012064
:103620008DF802008DF803006846FCF7D2FE08BD55
:103630002DE9F04105460E46174600240FE055F8E7
:103640002400114941F8240056F824000F4941F89C
:10365000240057F824000E4941F82400641C022C71
:10366000EDD3FFF7B1FFFFF7D3FF0120BDE8F081F5
:1036700000040040540000205600002058000020A4
:1036800050000020520000205C0000206400002058
:103690006C00002008B53120ADF8000000208DF846
:1036A000030069465448FDF785F90320ADF8000092
:1036B00000208DF8030069465048FDF77BF908BDEE
:1036C00000B585B0FFF7E6FF01214FF40670FDF766
:1036D00034FC002000908DF804008DF805004FF4B4
:1036E000602002900020039001208DF810006946B0
:1036F0004348FCF7FEFE01214148FCF7EEFF06239C
:1037000001220E213E48FCF78CFF062301220F21E7
:103710003B48FCF786FF062301220A213848FCF7C4
:1037200080FF0623012208213548FCF77AFF062393
:10373000012209213248FCF774FF01213048FCF7CF
:1037400004FF2F48FCF723FF00BF2D48FCF724FFA0
:103750000028FAD12A48FCF729FF00BF2848FCF7C7
:103760002AFF0028FAD105B000BD014624483430B4
:10377000006820F01F00224A3432106010460068B2
:10378000084310601E480830006840F480001C4A5E
:103790000832106000BF1A48006810F0020FFAD01B
:1037A00017484C30006880B270472DE9F0418046E0
:1037B0000C46002500264046FFF7D7FF05440120B0
:1037C00000F0D2FC002705E04046FFF7CEFF06449C
:1037D000781CC7B2A742F7DBB6FBF4F6A81B01D4EE
:1037E000014600E04142062902DAA8B2BDE8F081B4
:1037F0004FF6FF70FAE7000000100140000C014096
:103800000024014008B501211020FDF796FB482057
:103810008DF803000220ADF8000069463F48FDF72F
:10382000C9F808BD08B501212020FDF786FB482016
:103830008DF803004FF61E40ADF800006946384889
:10384000FDF7B8F808BD2DE9F0410020074606460F
:10385000054604464FF480613148FDF73CF9800687
:10386000050E10212E48FDF736F94006060E0821F8
:103870002B48FDF730F9074645EA060040EA070401
:103880002046BDE8F08170B5002005460646044696
:103890004FF480512248FDF71EF94006060E4FF402
:1038A00000611F48FDF717F9054646EA0504204662
:1038B00070BD2DE9F0470020814680460746064648
:1038C0000546044604211648FDF705F90007050ED4
:1038D00002211348FDF7FFF8C006060E4FF4004121
:1038E0000F48FDF7F8F88006070E4FF480410C48AA
:1038F000FDF7F1F840064FEA10684FF40041084820
:10390000FDF7E9F8814645EA0600384340EA080039
:1039100040EA09042046BDE8F0870000001001409D
:103920000014014008B51E208DF8000000208DF81D
:10393000010002208DF8020001208DF80300684686
:10394000FCF747FD08BD0EB501210420FDF702FB81
:103950005220ADF804004720ADF800000020ADF87B
:103960000600ADF8020069468B48FDF725FC0121F1
:103970008948FEF757FA01218748FDF779FF0EBD08
:1039800008B501210420FDF7D8FA04208DF80300C2
:103990004020ADF8000069468048FDF70BF8FFF7BE
:1039A000D2FFFFF7BFFF7E480021016008BD08B5C8
:1039B00004208DF803004020ADF8000069467748E8
:1039C000FCF7F8FF002201217348FDF76CFF00208F
:1039D00074490870744908707449087008BD10B5BE
:1039E00001216D48FEF70DFA00285AD001216A48DE
:1039F000FEF718FA6C480078401C6B4908706B4859
:103A00000078012819D10846007880280BDD0122B2
:103A100040216248FDF77DF80220644908700020CB
:103A2000614908703DE060480078042839DD0022D3
:103A300040215A48FDF76DF833E05C4800780228D1
:103A40002FD15B4857490978405C012809D1564875
:103A500000780C280EDD002240215048FDF759F86F
:103A600008E051480078042804DD002240214B483A
:103A7000FDF74FF84C48007810280CDD00204A492B
:103A8000087048480078401C4649087001224021CF
:103A90004248FDF73EF843480078182801D1FFF767
:103AA00086FF10BD08B510208DF803004020ADF84A
:103AB000000003208DF8020069463848FCF77AFFC1
:103AC000012240213548FDF724F8002035490870CF
:103AD000012036490870012211462F48FDF7E3FE08
:103AE00008BDF8B507460024002500262F480078B9
:103AF00008B10020F8BD002404E0385D0DF8040092
:103B0000601CC4B2032CF8DB00251BE0002415E088
:103B10001DF8050010F0800F03D0012024498855BE
:103B200002E00020224988551DF805004006000EDD
:103B30000DF80500701CC6B2601CC4B2082CE7DB8F
:103B4000681CC5B2032DE1DBFFF7ACFF0120D1E714
:103B500070B50546002407E000BF2846FFF7C1FF07
:103B60000128FAD1601CC4B2052CF5DBAA2011494A
:103B7000087070BD0246012907DB032905DC042A11
:103B800003DA07488154012070470020FCE704490C
:103B9000096801607047000000080040000801400B
:103BA000900000208E000020740000208F00002074
:103BB000750000204F00002010B501218807FDF797
:103BC00057FE10BD10B500214FF08040FDF750FEAC
:103BD00010BD00203249086032490860324908802F
:103BE000704710B501218807FEF70BF9A8B12E48E0
:103BF0000088401C2C4908802948006880472A48D2
:103C000000880A2805DB27480068804700202649ED
:103C1000088001218807FEF705F910BD08B51C20B2
:103C20008DF8000000208DF801008DF802000120C1
:103C30008DF803006846FCF7CCFB08BD0EB50121EA
:103C40000846FDF787F96320ADF8040040F2CF2065
:103C5000ADF800000020ADF80600ADF8020069469E
:103C60004FF08040FDF7A8FA01218807FEF7DAF847
:103C7000012211469007FDF716FE01218807FDF786
:103C8000F7FD0EBD70B505460C46054805600548B4
:103C90000460FFF7D3FFFFF7C1FF012070BD0000F4
:103CA00094000020980000209C00002070470146EE
:103CB0004888142801DB04207047088810B10128C7
:103CC0000ED106E0488800EB8000F74A12F8200089
:103CD000F2E7488800EB8000F44A12F82000EBE796
:103CE0000420E9E710B5002451E004EB8400EE491C
:103CF00011F82000012848D104EB840001EB80007A
:103D0000C068401E04EB8401E74A02EB8101C860F1
:103D100004EB8400114601EB8000C06838BB04EB63
:103D2000840102EB81010869804704EB8400DE49CD
:103D300001EB8000407802280BD104EB840001EBFA
:103D40008000806804EB8401D74A02EB8101C860DF
:103D50001BE004EB8400D44901EB8000407801288B
:103D600006D1002004EB8401CF4A02F821000CE0C8
:103D700004EB8400CC4901EB80004078032804D197
:103D800004EB8401C84A02F82100601CC4B2142C60
:103D9000ABDB10BD10B5002451E004EB8400C34937
:103DA00011F82000012848D104EB840001EB8000C9
:103DB000C068401E04EB8401BC4A02EB8101C8606C
:103DC00004EB8400114601EB8000C06838BB04EBB3
:103DD000840102EB81010869804704EB8400B34948
:103DE00001EB8000407802280BD104EB840001EB4A
:103DF0008000806804EB8401AC4A02EB8101C8605A
:103E00001BE004EB8400A94901EB80004078012805
:103E100006D1002004EB8401A44A02F821000CE042
:103E200004EB8400A14901EB80004078032804D111
:103E300004EB84019D4A02F82100601CC4B2142CDA
:103E4000ABDB10BD2DE9FE4F81460D46924615B104
:103E5000B5F57A7F00D33EE095480088142800DD50
:103E600039E00A2D06D90A20B5FBF0F100FB11500C
:103E700000B130E00A2D03D28D4E8B4C012702E0B9
:103E80008C4E8A4C0A274FF0000820E02078D8B9E1
:103E9000FFF798FE0120207084F801A0B5FBF7F031
:103EA000A060B5FBF7F0E060C4F810903088401CCB
:103EB0003080FFF781FE6088ADF80400A088ADF87F
:103EC00006000198BDE8FE8F143408F10108B8F12E
:103ED000140FDBD300BF4FF6FF70ADF80800ADF84C
:103EE0000A00BDF80800ADF80000BDF80A00ADF802
:103EF00002000098E6E710B504466088142801DB4C
:103F0000002010BD208810B101284ED126E0608825
:103F100000EB8000644911F82000E0B1FFF752FE89
:103F20000020618801EB81015F4A02F8210061886D
:103F300001EB810102EB81018860618801EB810165
:103F400002EB810108615A480088401E58490880E8
:103F5000FFF732FE01E00020D3E728E0608800EBA5
:103F60008000524911F82000E0B1FFF72BFE00203D
:103F7000618801EB81014D4A02F82100618801EB63
:103F8000810102EB81018860618801EB810102EB14
:103F90008101086147480088401E46490880FFF7B4
:103FA0000BFE01E00020ACE701E00020A9E700BF24
:103FB0000120A6E710B5FFF70CFE00203C49088061
:103FC0003C490880002424E0002004EB8401364AA8
:103FD00002F8210004EB840102EB8101487004EB3C
:103FE000840102EB8101886004EB840102EB810112
:103FF000C86004EB840102EB8101086104EB8401D9
:1040000002EB8101488004EB840002EB8000848095
:10401000641C142CD8D3002424E0002004EB840179
:10402000224A02F8210004EB840102EB810148706E
:1040300004EB840102EB8101886004EB840102EB54
:104040008101C86004EB840102EB8101086104EB8B
:10405000840102EB8101488004EB840002EB8000C4
:104060008480641C142CD8D3134814490860144865
:10407000144908600846016810480068FFF702FE0E
:1040800018B1FFF799FD012010BDFFF79BFD00203F
:10409000FAE710B504462046FFF709FE032801D1D0
:1040A000012010BD0020FCE7E80500207807002073
:1040B000A0000020A2000020E53C0008A400002091
:1040C000953D0008A800002070B504460D466088A4
:1040D000142828DAFFF776FD208810B101281ED1B8
:1040E0000EE00120618801EB8101734A02F8210092
:1040F000608800EB8000114601EB800085600FE0D6
:104100000120618801EB81016C4A02F8210060887E
:1041100000EB8000114601EB8000856000E000BFED
:1041200000BFFFF749FD70BD10B504466088142834
:1041300018DAFFF747FD208810B1012810D107E0F9
:10414000608800EB80005C4901EB8000806810BD56
:10415000608800EB8000594901EB80008068F6E739
:104160000020F4E70020F2E71CB504460A2C16D222
:10417000032221465248FFF765FE0090BDF800007B
:10418000ADF80400BDF80200ADF8060000BF01A8BC
:10419000FFF77FFF0028FAD001A8FFF7ACFE1CBD97
:1041A00070B504460D466088142824DAFFF70AFD2E
:1041B000208810B101281AD10CE0608800EB800043
:1041C0003D4911F8200020B1608800EB800001F823
:1041D00020500DE0608800EB8000384911F8200085
:1041E00020B1608800EB800001F8205000E000BFA3
:1041F00000BFFFF7E1FC70BD10B5FFF7DDFC10BD9F
:1042000010B5FFF7DFFC10BD00212E4A11802E4AA9
:104210001180002024E0002100EB8002264B03F8EF
:10422000221000EB800203EB8202517000EB80024F
:1042300003EB8202916000EB800203EB8202D1600B
:1042400000EB800203EB8202116100EB800203EBC2
:104250008202518000EB800103EB81018880401CC9
:104260001428D8D3002024E0002100EB8002134B57
:1042700003F8221000EB800203EB8202517000EB86
:10428000800203EB8202916000EB800203EB82026A
:10429000D16000EB800203EB8202116100EB80022F
:1042A00003EB8202518000EB800103EB81018880E7
:1042B000401C1428D8D37047E80500207807002058
:1042C000AD3C0008A0000020A200002038B5044644
:1042D0000D46FE4951F82410FD4A52F8242011439E
:1042E00041F001000121FCF728FE34B9F94951F8E9
:1042F00024000121FCF72EFE05E0F64951F82400C8
:104300000121FCF71AFE18208DF80300F24830F85E
:104310001400ADF8000003208DF80200EF4951F8B9
:1043200024006946FCF746FB04208DF80300EC48A6
:1043300030F81400ADF80000EA4951F8240069464D
:10434000FCF738FBE84951F824002946FDF7B1FD98
:10435000E54951F824000121FDF737FE38BD1FB5AE
:104360004FF4165000900020ADF80400ADF80600A0
:10437000ADF80800ADF80C000C20ADF80A00694655
:104380000120FFF7A3FF002240F22771D748FDF775
:1043900028FE012240F22551D448FDF722FE1FBD20
:1043A00008B525208DF8000001208DF801008DF85A
:1043B00002008DF803006846FCF70BF808BDCC48F6
:1043C000007840B10020CB490870CB490870CB4938
:1043D0000880C7490870C7480078022807D1C74835
:1043E0000088C749096808800320C24908707047DF
:1043F00010B5C4480078C8B1C2480078401EC14911
:1044000008700846007888B9BF48007801280DD1A7
:104410000020BD490870002240F22771B348FDF723
:10442000E0FD0020B9490880B9490860B248007829
:1044300070B1B1480078401EAF4908700846007856
:1044400030B9AC480078012802D10220A94908708F
:1044500010BD10B50020A6490870AC490880A749D6
:104460000880A9490870FF21AA4800F04BFEAA481D
:10447000002101604160A748A74948600846A0495B
:10448000086000209B490870A14908609D49087098
:1044900099490870002240F227719448FDF7A1FD68
:1044A00004209E49087010BD08B5FFF7D2FF022214
:1044B00001219B48FFF7C6FC009002220A2199487F
:1044C000FFF7C0FC009008BD10B5FFF7EDFFFFF748
:1044D00067FFFFF744FF10BD10B5044600BF9248C8
:1044E0000068FF28FBD090480068FF2810D28F4951
:1044F0000868411C8D4A11608D490C5410460068B3
:10450000C0B21146086088480068401C86490860AF
:10451000012240F227717548FDF763FD10BD70B5AB
:1045200004460D46E0B2FFF7D7FF204670BD10B538
:104530007D480068A0B17F480468601C7D4A106017
:104540007B48015D6948FDF7ADFD77480068401E76
:104550007549086077480068C0B27649086005E090
:10456000002240F227716148FDF73BFD10BD10B5F8
:1045700000245E48FDF79AFDC4B26F480068002829
:104580002ED10D2C07D16D496D4A12688854012037
:104590006949086018E0082C0BD16948006898B197
:1045A00068A000F0FBFD66480068401E6449086092
:1045B0000AE063490868411C614A11605F490C5474
:1045C000214661A000F0EAFD5D480068FE2807D39F
:1045D00000205A495A4A12688854012056490860F6
:1045E00010BD00205649086053490860704710B557
:1045F0004748006818B3464800680088434909885E
:10460000884212DD424800684068404A1288815C56
:104610003648FDF747FD3D480088401C3B4908806F
:104620003E480078374908700FE0002240F22771B9
:104630002E48FDF7D6FC00203349087005E0002223
:1046400040F227712948FDF7CCFC10BD10B5294870
:10465000007818B12748007801281BD12548007838
:1046600028B90120234908700020244908801F48E8
:10467000FDF71CFD224909684968204A12888854C0
:104680001E480088401C1D490880244800781A49AB
:10469000087002E01548FDF709FD10BD10B540F2A5
:1046A00025511248FDF782FD08B1FFF7CFFF082121
:1046B0000E48FDF765FD28B10C48FDF7F7FC012019
:1046C0000B49087040F2277108483FE0B4520008D7
:1046D000BC520008AC520008C4520008EC00002094
:1046E000C8520008F4000020E40000200038014017
:1046F000C3000020E0000020C5000020CE00002004
:10470000D4000020C4000020E1000020CC000020E4
:10471000D000002008090020D8000020C800002098
:10472000F1430008BF430008B4000020B00000209F
:10473000070A0020AC000020BC000020070B00206E
:10474000B80000200820080025630000FDF72EFDBA
:1047500008B1FFF74CFF10BD38B5044600200090AB
:1047600014B32C480078E0B92B480078032815D101
:104770002A48006800882080284B1B681A88274B2D
:104780001B685968606800F0A4FC00202349096890
:104790000880214908700520009007E0042000905F
:1047A00004E00220009001E0012000909DF800004C
:1047B00038BD10B540F227711948FDF7F7FC012804
:1047C00003D014480078012801D1012010BD002039
:1047D000FCE710B5044600BFFFF7EBFF0028FBD154
:1047E000B4B12088002813DD0E4800780E49087007
:1047F0000E48046000200E490880012240F2277113
:104800000748FDF7EEFB012002490870052010BDA6
:104810000120FCE7E1000020E0000020D40000209F
:1048200000380140C8000020C4000020D000002053
:10483000CC00002038B504460D46EB4951F8241051
:10484000EA4A52F82420114341F001000121FCF70B
:1048500074FB34B9E64951F824000121FCF77AFBD6
:1048600005E0E34951F824000121FCF766FB18201C
:104870008DF80300DF4830F81400ADF80000032085
:104880008DF80200DC4951F824006946FCF792F8E3
:1048900004208DF80300D94830F81400ADF800006A
:1048A000D74951F824006946FCF784F8D54951F8F6
:1048B00024002946FDF7FDFAD24951F824000121D0
:1048C000FDF783FB38BD1FB54FF416500090002054
:1048D000ADF80400ADF80600ADF80800ADF80C0026
:1048E0000C20ADF80A0069460020FFF7A3FF002264
:1048F00040F22771C448FDF774FB012240F22551B4
:10490000C148FDF76EFB1FBD08B526208DF80000DD
:1049100001208DF8010000208DF8020001208DF8A3
:1049200003006846FBF755FD08BDB848007840B164
:104930000020B7490870B7490870B7490880B349E3
:104940000870B3480078022807D1B3480088B349FB
:10495000096808800320AE490870704710B5B04858
:104960000078C8B1AE480078401EAD4908700846CE
:10497000007888B9AB48007801280DD10020A949FA
:104980000870002240F227719F48FDF72AFB0020A3
:10499000A5490880A54908609E48007870B19D48E7
:1049A0000078401E9B4908700846007830B9984846
:1049B0000078012802D102209549087010BD10B579
:1049C00000209249087098490880934908809549C9
:1049D0000870FF21964800F095FB96480021016081
:1049E000416093489349486008468C49086000201C
:1049F000874908708D4908608949087085490870A1
:104A0000002240F227718048FDF7EBFA04208A4922
:104A1000087010BD08B5FFF7D2FF022201218748B8
:104A2000FFF710FA009002220A218548FFF70AFAE0
:104A3000009008BD10B5FFF7EDFFFFF765FFFFF72A
:104A400042FF10BD10B57948006818B37748006878
:104A5000008875490988884212DD744800684068FA
:104A6000714A1288815C6848FDF71CFB6E4800881B
:104A7000401C6D49088070480078694908700FE053
:104A8000002240F227716048FDF7ABFA002065492B
:104A9000087005E0002240F227715B48FDF7A1FA9B
:104AA00010BD10B55A48007818B15948007801284F
:104AB0001BD15748007828B90120554908700020BB
:104AC000554908805048FDF7F1FA5449096849688A
:104AD000514A1288885450480088401C4E4908802A
:104AE000554800784B49087002E04748FDF7DEFA68
:104AF00010BD10B540F225514348FDF757FB08B1F2
:104B0000FFF7CFFF08214048FDF73AFB28B13E48A8
:104B1000FDF7CCFA01203D49087040F227713A4870
:104B2000FDF744FB08B1FFF78DFF10BD38B5044613
:104B30000020009014B33B480078E0B93448007876
:104B4000032815D13548006800882080334B1B6846
:104B50001A88324B1B685968606800F0BAFA002066
:104B60002E49096808802A4908700520009007E04E
:104B70000420009004E00220009001E00120009059
:104B80009DF8000038BD10B540F227711E48FDF7B2
:104B90000DFB012803D023480078012801D1012012
:104BA00010BD0020FCE710B5044600BFFFF7EBFF87
:104BB0000028FBD1B4B12088002813DD1E480078FE
:104BC000174908701948046000201749088001221D
:104BD00040F227710C48FDF704FA012011490870D2
:104BE000052010BD0120FCE7B4520008BC520008AB
:104BF000AC520008C4520008EC000020C852000863
:104C0000F4000020E400002000440040FF000020E9
:104C10001C010020010100200A01002010010020D9
:104C2000000100201D010020080100200C010020CF
:104C3000060C002014010020040100205D4900083A
:104C40002B4900082DE9FC4105460E461746019503
:104C500017B1012F0AD104E06846FFF77DFD044635
:104C600007E06846FFF762FF044602E00620BDE861
:104C7000FC8100BFBDF8000030802046F7E710B58A
:104C8000044614B1012C06D102E0FFF792FD10BDDD
:104C9000FFF779FFFBE70020F9E72DE9FC41064625
:104CA0000F461446ADF80070019614B1012C0AD1DC
:104CB00004E06846FFF78DFD054607E06846FFF70C
:104CC00072FF054602E00620BDE8FC8100BF00BF80
:104CD0002046FFF7D4FF0028FAD12846F4E7000069
:104CE00010B519217D4800F00DFA10BD7C490978F6
:104CF00071B17C490988491C7A4A1180114609889A
:104D00004FF6FE72914206DB1146764A118002E0B0
:104D10000021744A1180002020E000EB80016F4ADE
:104D20001144C978C1B100EB80011144C978491E12
:104D300000EB8002694B1A44D17000EB80011A46E7
:104D40001144C97841B900EB8001515C21B10121C6
:104D500000EB80021A449170411CC8B20528DCDBCC
:104D6000704708B5FEF7ACFC022264215E48FDF7EF
:104D7000DCFC0090FFF7B4FF08BD2DE9F0410746C9
:104D80000D460024002664213846FEF70EFD044639
:104D9000A4F57F40FF383AD040F26450844202DDEF
:104DA000B4F5B96F01DB142C0CDA50480078401CC4
:104DB0004E4908700220287000204949087049496E
:104DC000088024E0B4F57A6F01DD012600E0222698
:104DD0002878B0420AD145480078401C4349087001
:104DE00000203F4908703F49088010E001203C49FD
:104DF00008703C480088052809DD00200870394902
:104E000008802E7039480078401C38490870BDE889
:104E1000F0811CB536A103C9CDE900013348007803
:104E2000052802DB002031490870334A2F4B1B78DC
:104E3000D1182E4B1B781DF80300FFF79EFF1CBDF9
:104E400030B595B018222DA102A800F042F931A189
:104E500003C9CDE90001FFF7DCFF244800780528ED
:104E60002DDC22480078401EC4B22348005D2B4947
:104E7000095D884223D02048005D012805D104EB5C
:104E80008401164A1144087115E0022004EB8401E4
:104E9000124A11440871152202A90DF1210000F0F7
:104EA00018F91DF804008DF8200016250022294667
:104EB00008A8FFF7F2FE1048005D1849085515B024
:104EC00030BD16490A6802600979017170470021F6
:104ED00000EB8002014B995470470000050D002043
:104EE000290100202A010020ED4C00081E010020AD
:104EF0000E0F0A0809000000240100202073656ECF
:104F0000736F722062652073686F72746564200A23
:104F10000000000030313233340000001F01002057
:104F200010B5FFF787FD40F201112D4800F0EAF8B7
:104F30004FF481712B4800F0E5F84FF480712A4856
:104F400000F0E0F82648801C284908600020284925
:104F5000087010BD38B527A000680090244800787C
:104F600020B101280DD0022834D123E01D4800785B
:104F7000012802D11E49087002E002201C49087075
:104F80002CE01848B0F801402246C11C164800F039
:104F9000A0F8012221461448FFF77FFEFF211148A7
:104FA000C01C00F0AFF800200E4908700220104924
:104FB000087013E001220A490C480068FFF742FE1E
:104FC000052803D16846FEF7C3FD02E0002008492A
:104FD000087003E000200649087000BF00BF38BD1C
:104FE0001E0D00201F0E0020210F00202C0100208C
:104FF00030010020AABBCC0010B52E480078012853
:1050000019D102212C48FBF766FD78B92B480078AE
:10501000401C2A490870084600780A280BD1022053
:105020002449087000202549087004E00020214927
:1050300008702249087010BD08B5FEF7E3FBFEF7C3
:10504000F1FB02220A21AFF24F00FEF7FBFE0090B7
:10505000002018490870FEF72CFC1949087008BD9B
:105060001CB518A00068019012480078022814D1DD
:1050700000200090FEF7E7FB8DF80000FEF703FC30
:105080008DF80100FEF715FC8DF8020001A8FEF76F
:105090005FFD0020074908700AE00648007838B92B
:1050A00002210548FBF717FD10B9012001490870DE
:1050B0001CBD000032010020001001403101002021
:1050C00033010020AABBCC0010B5FFF7FDF910BDDD
:1050D000704740EA01039B0703D009E008C9121F8B
:1050E00008C0042AFAD203E011F8013B00F8013BA2
:1050F000521EF9D27047D2B201E000F8012B491ECE
:10510000FBD270470022F6E710B513460A46044664
:105110001946FFF7F0FF204610BD0000064C074D72
:1051200006E0E06840F0010394E807009847103477
:10513000AC42F6D3FBF700F8CC520008EC52000862
:1051400070B501EB020410F8015B15F0070301D103
:1051500010F8013B2A1106D110F8012B03E010F8DA
:10516000016B01F8016B5B1EF9D12B0705D40023FD
:10517000521E0FD401F8013BFAE710F8013B02F18F
:105180000202A1EB030303E013F8015B01F8015BEA
:10519000521EF9D5A142D6D3002070BD0FB4054BE5
:1051A00010B503A9044A029800F017F810BC5DF886
:1051B00014FB00001F4500083401002002E008C86D
:1051C000121F08C1002AFAD170477047002001E081
:1051D00001C1121F002AFBD170472DE9F84F9946F3
:1051E000924688460546002759E0252801D05146B9
:1051F00023E0002315F8011F18462E2915D115F8B4
:10520000011F04232A290DD06FF02F022978A1F164
:105210003004092C09D800EB800002EB4000084460
:105220006D1CF3E758F8040B6D1C2A7872B3632ADF
:1052300008D0732A10D0514610464A46904707F1CD
:1052400001072BE018F8042B8DF8002000218DF8C1
:1052500001106E46012103E058F8046B4FF0FF3156
:105260005A074FF0000401D409E0641C84420BDAB1
:105270008C42FADB325D002AF7D105E0641C8C42D7
:10528000FCDB305D0028F9D1274405E00AE016F880
:10529000010B51464A469047641EF8D26D1C28788F
:1052A0000028A2D13846BDE8F88F000000000200B7
:1052B00000400000040000000400000004000000A2
:1052C000040000000400000208000004EC52000882
:1052D0000000002038010000405100081C53000865
:1052E00038010020F0160000CC5100081184A24AB9
:1052F00004680901020304060708090C6910054D3A
:10530000020406080A16FF0101571244124014381D
:0C5310000140DA080401227A0101F100DA
:0400000508000131BD
:00000001FF
